{"contracts/CityToken.sol":{"CityToken":{"abi":[{"anonymous":false,"inputs":[{"indexed":false,"internalType":"uint256","name":"building","type":"uint256"},{"indexed":false,"internalType":"string","name":"ownerName","type":"string"},{"indexed":false,"internalType":"string","name":"message","type":"string"},{"components":[{"internalType":"uint256","name":"x","type":"uint256"},{"internalType":"uint256","name":"y","type":"uint256"},{"internalType":"uint256","name":"z","type":"uint256"}],"indexed":false,"internalType":"struct CityToken.Position","name":"position","type":"tuple"},{"indexed":false,"internalType":"uint256","name":"height","type":"uint256"},{"indexed":false,"internalType":"uint256","name":"color","type":"uint256"}],"name":"NewBuilding","type":"event"},{"inputs":[{"internalType":"uint256","name":"","type":"uint256"}],"name":"buildings","outputs":[{"internalType":"string","name":"ownerName","type":"string"},{"internalType":"string","name":"message","type":"string"},{"components":[{"internalType":"uint256","name":"x","type":"uint256"},{"internalType":"uint256","name":"y","type":"uint256"},{"internalType":"uint256","name":"z","type":"uint256"}],"internalType":"struct CityToken.Position","name":"position","type":"tuple"},{"internalType":"uint256","name":"height","type":"uint256"},{"internalType":"uint256","name":"color","type":"uint256"}],"stateMutability":"view","type":"function"},{"inputs":[{"internalType":"string","name":"_ownerName","type":"string"},{"internalType":"string","name":"_message","type":"string"},{"components":[{"internalType":"uint256","name":"x","type":"uint256"},{"internalType":"uint256","name":"y","type":"uint256"},{"internalType":"uint256","name":"z","type":"uint256"}],"internalType":"struct CityToken.Position","name":"_position","type":"tuple"},{"internalType":"uint256","name":"_height","type":"uint256"},{"internalType":"uint256","name":"_color","type":"uint256"}],"name":"createBuilding","outputs":[],"stateMutability":"nonpayable","type":"function"},{"inputs":[],"name":"nbBuildings","outputs":[{"internalType":"uint256","name":"","type":"uint256"}],"stateMutability":"view","type":"function"}],"evm":{"bytecode":{"linkReferences":{},"object":"608060405234801561001057600080fd5b5061098f806100206000396000f3fe608060405234801561001057600080fd5b50600436106100415760003560e01c80634c96a062146100465780638d9856511461007a578063a6fdc5c714610098575b600080fd5b610060600480360381019061005b919061058c565b6100b4565b60405161007195949392919061064e565b60405180910390f35b610082610232565b60405161008f91906106af565b60405180910390f35b6100b260048036038101906100ad91906104e5565b610238565b005b600081815481106100c457600080fd5b90600052602060002090600702016000915090508060000180546100e7906107f8565b80601f0160208091040260200160405190810160405280929190818152602001828054610113906107f8565b80156101605780601f1061013557610100808354040283529160200191610160565b820191906000526020600020905b81548152906001019060200180831161014357829003601f168201915b505050505090806001018054610175906107f8565b80601f01602080910402602001604051908101604052809291908181526020018280546101a1906107f8565b80156101ee5780601f106101c3576101008083540402835291602001916101ee565b820191906000526020600020905b8154815290600101906020018083116101d157829003601f168201915b505050505090806002016040518060600160405290816000820154815260200160018201548152602001600282015481525050908060050154908060060154905085565b60015481565b60006040518060a0016040528087815260200186815260200185815260200184815260200183815250908060018154018082558091505060019003906000526020600020906007020160009091909190915060008201518160000190805190602001906102a6929190610365565b5060208201518160010190805190602001906102c3929190610365565b506040820151816002016000820151816000015560208201518160010155604082015181600201555050606082015181600501556080820151816006015550507f8cb0712d9d53b513caea401396999079e4669ba15db949cc7271559dcba43201600154868686868660405161033e969594939291906106ca565b60405180910390a1600160008154809291906103599061085b565b91905055505050505050565b828054610371906107f8565b90600052602060002090601f01602090048101928261039357600085556103da565b82601f106103ac57805160ff19168380011785556103da565b828001600101855582156103da579182015b828111156103d95782518255916020019190600101906103be565b5b5090506103e791906103eb565b5090565b5b808211156104045760008160009055506001016103ec565b5090565b600061041b6104168461075f565b61073a565b90508281526020810184848401111561043357600080fd5b61043e8482856107b6565b509392505050565b600082601f83011261045757600080fd5b8135610467848260208601610408565b91505092915050565b60006060828403121561048257600080fd5b61048c606061073a565b9050600061049c848285016104d0565b60008301525060206104b0848285016104d0565b60208301525060406104c4848285016104d0565b60408301525092915050565b6000813590506104df81610942565b92915050565b600080600080600060e086880312156104fd57600080fd5b600086013567ffffffffffffffff81111561051757600080fd5b61052388828901610446565b955050602086013567ffffffffffffffff81111561054057600080fd5b61054c88828901610446565b945050604061055d88828901610470565b93505060a061056e888289016104d0565b92505060c061057f888289016104d0565b9150509295509295909350565b60006020828403121561059e57600080fd5b60006105ac848285016104d0565b91505092915050565b60006105c082610790565b6105ca818561079b565b93506105da8185602086016107c5565b6105e381610931565b840191505092915050565b6060820160008201516106046000850182610630565b5060208201516106176020850182610630565b50604082015161062a6040850182610630565b50505050565b610639816107ac565b82525050565b610648816107ac565b82525050565b600060e082019050818103600083015261066881886105b5565b9050818103602083015261067c81876105b5565b905061068b60408301866105ee565b61069860a083018561063f565b6106a560c083018461063f565b9695505050505050565b60006020820190506106c4600083018461063f565b92915050565b6000610100820190506106e0600083018961063f565b81810360208301526106f281886105b5565b9050818103604083015261070681876105b5565b905061071560608301866105ee565b61072260c083018561063f565b61072f60e083018461063f565b979650505050505050565b6000610744610755565b9050610750828261082a565b919050565b6000604051905090565b600067ffffffffffffffff82111561077a57610779610902565b5b61078382610931565b9050602081019050919050565b600081519050919050565b600082825260208201905092915050565b6000819050919050565b82818337600083830152505050565b60005b838110156107e35780820151818401526020810190506107c8565b838111156107f2576000848401525b50505050565b6000600282049050600182168061081057607f821691505b60208210811415610824576108236108d3565b5b50919050565b61083382610931565b810181811067ffffffffffffffff8211171561085257610851610902565b5b80604052505050565b6000610866826107ac565b91507fffffffffffffffffffffffffffffffffffffffffffffffffffffffffffffffff821415610899576108986108a4565b5b600182019050919050565b7f4e487b7100000000000000000000000000000000000000000000000000000000600052601160045260246000fd5b7f4e487b7100000000000000000000000000000000000000000000000000000000600052602260045260246000fd5b7f4e487b7100000000000000000000000000000000000000000000000000000000600052604160045260246000fd5b6000601f19601f8301169050919050565b61094b816107ac565b811461095657600080fd5b5056fea26469706673582212204f1140892fb6773b7838b3e9034d99e65f64297729c5639383172e9a274ef7d364736f6c63430008040033","opcodes":"PUSH1 0x80 PUSH1 0x40 MSTORE CALLVALUE DUP1 ISZERO PUSH2 0x10 JUMPI PUSH1 0x0 DUP1 REVERT JUMPDEST POP PUSH2 0x98F DUP1 PUSH2 0x20 PUSH1 0x0 CODECOPY PUSH1 0x0 RETURN INVALID PUSH1 0x80 PUSH1 0x40 MSTORE CALLVALUE DUP1 ISZERO PUSH2 0x10 JUMPI PUSH1 0x0 DUP1 REVERT JUMPDEST POP PUSH1 0x4 CALLDATASIZE LT PUSH2 0x41 JUMPI PUSH1 0x0 CALLDATALOAD PUSH1 0xE0 SHR DUP1 PUSH4 0x4C96A062 EQ PUSH2 0x46 JUMPI DUP1 PUSH4 0x8D985651 EQ PUSH2 0x7A JUMPI DUP1 PUSH4 0xA6FDC5C7 EQ PUSH2 0x98 JUMPI JUMPDEST PUSH1 0x0 DUP1 REVERT JUMPDEST PUSH2 0x60 PUSH1 0x4 DUP1 CALLDATASIZE SUB DUP2 ADD SWAP1 PUSH2 0x5B SWAP2 SWAP1 PUSH2 0x58C JUMP JUMPDEST PUSH2 0xB4 JUMP JUMPDEST PUSH1 0x40 MLOAD PUSH2 0x71 SWAP6 SWAP5 SWAP4 SWAP3 SWAP2 SWAP1 PUSH2 0x64E JUMP JUMPDEST PUSH1 0x40 MLOAD DUP1 SWAP2 SUB SWAP1 RETURN JUMPDEST PUSH2 0x82 PUSH2 0x232 JUMP JUMPDEST PUSH1 0x40 MLOAD PUSH2 0x8F SWAP2 SWAP1 PUSH2 0x6AF JUMP JUMPDEST PUSH1 0x40 MLOAD DUP1 SWAP2 SUB SWAP1 RETURN JUMPDEST PUSH2 0xB2 PUSH1 0x4 DUP1 CALLDATASIZE SUB DUP2 ADD SWAP1 PUSH2 0xAD SWAP2 SWAP1 PUSH2 0x4E5 JUMP JUMPDEST PUSH2 0x238 JUMP JUMPDEST STOP JUMPDEST PUSH1 0x0 DUP2 DUP2 SLOAD DUP2 LT PUSH2 0xC4 JUMPI PUSH1 0x0 DUP1 REVERT JUMPDEST SWAP1 PUSH1 0x0 MSTORE PUSH1 0x20 PUSH1 0x0 KECCAK256 SWAP1 PUSH1 0x7 MUL ADD PUSH1 0x0 SWAP2 POP SWAP1 POP DUP1 PUSH1 0x0 ADD DUP1 SLOAD PUSH2 0xE7 SWAP1 PUSH2 0x7F8 JUMP JUMPDEST DUP1 PUSH1 0x1F ADD PUSH1 0x20 DUP1 SWAP2 DIV MUL PUSH1 0x20 ADD PUSH1 0x40 MLOAD SWAP1 DUP2 ADD PUSH1 0x40 MSTORE DUP1 SWAP3 SWAP2 SWAP1 DUP2 DUP2 MSTORE PUSH1 0x20 ADD DUP3 DUP1 SLOAD PUSH2 0x113 SWAP1 PUSH2 0x7F8 JUMP JUMPDEST DUP1 ISZERO PUSH2 0x160 JUMPI DUP1 PUSH1 0x1F LT PUSH2 0x135 JUMPI PUSH2 0x100 DUP1 DUP4 SLOAD DIV MUL DUP4 MSTORE SWAP2 PUSH1 0x20 ADD SWAP2 PUSH2 0x160 JUMP JUMPDEST DUP3 ADD SWAP2 SWAP1 PUSH1 0x0 MSTORE PUSH1 0x20 PUSH1 0x0 KECCAK256 SWAP1 JUMPDEST DUP2 SLOAD DUP2 MSTORE SWAP1 PUSH1 0x1 ADD SWAP1 PUSH1 0x20 ADD DUP1 DUP4 GT PUSH2 0x143 JUMPI DUP3 SWAP1 SUB PUSH1 0x1F AND DUP3 ADD SWAP2 JUMPDEST POP POP POP POP POP SWAP1 DUP1 PUSH1 0x1 ADD DUP1 SLOAD PUSH2 0x175 SWAP1 PUSH2 0x7F8 JUMP JUMPDEST DUP1 PUSH1 0x1F ADD PUSH1 0x20 DUP1 SWAP2 DIV MUL PUSH1 0x20 ADD PUSH1 0x40 MLOAD SWAP1 DUP2 ADD PUSH1 0x40 MSTORE DUP1 SWAP3 SWAP2 SWAP1 DUP2 DUP2 MSTORE PUSH1 0x20 ADD DUP3 DUP1 SLOAD PUSH2 0x1A1 SWAP1 PUSH2 0x7F8 JUMP JUMPDEST DUP1 ISZERO PUSH2 0x1EE JUMPI DUP1 PUSH1 0x1F LT PUSH2 0x1C3 JUMPI PUSH2 0x100 DUP1 DUP4 SLOAD DIV MUL DUP4 MSTORE SWAP2 PUSH1 0x20 ADD SWAP2 PUSH2 0x1EE JUMP JUMPDEST DUP3 ADD SWAP2 SWAP1 PUSH1 0x0 MSTORE PUSH1 0x20 PUSH1 0x0 KECCAK256 SWAP1 JUMPDEST DUP2 SLOAD DUP2 MSTORE SWAP1 PUSH1 0x1 ADD SWAP1 PUSH1 0x20 ADD DUP1 DUP4 GT PUSH2 0x1D1 JUMPI DUP3 SWAP1 SUB PUSH1 0x1F AND DUP3 ADD SWAP2 JUMPDEST POP POP POP POP POP SWAP1 DUP1 PUSH1 0x2 ADD PUSH1 0x40 MLOAD DUP1 PUSH1 0x60 ADD PUSH1 0x40 MSTORE SWAP1 DUP2 PUSH1 0x0 DUP3 ADD SLOAD DUP2 MSTORE PUSH1 0x20 ADD PUSH1 0x1 DUP3 ADD SLOAD DUP2 MSTORE PUSH1 0x20 ADD PUSH1 0x2 DUP3 ADD SLOAD DUP2 MSTORE POP POP SWAP1 DUP1 PUSH1 0x5 ADD SLOAD SWAP1 DUP1 PUSH1 0x6 ADD SLOAD SWAP1 POP DUP6 JUMP JUMPDEST PUSH1 0x1 SLOAD DUP2 JUMP JUMPDEST PUSH1 0x0 PUSH1 0x40 MLOAD DUP1 PUSH1 0xA0 ADD PUSH1 0x40 MSTORE DUP1 DUP8 DUP2 MSTORE PUSH1 0x20 ADD DUP7 DUP2 MSTORE PUSH1 0x20 ADD DUP6 DUP2 MSTORE PUSH1 0x20 ADD DUP5 DUP2 MSTORE PUSH1 0x20 ADD DUP4 DUP2 MSTORE POP SWAP1 DUP1 PUSH1 0x1 DUP2 SLOAD ADD DUP1 DUP3 SSTORE DUP1 SWAP2 POP POP PUSH1 0x1 SWAP1 SUB SWAP1 PUSH1 0x0 MSTORE PUSH1 0x20 PUSH1 0x0 KECCAK256 SWAP1 PUSH1 0x7 MUL ADD PUSH1 0x0 SWAP1 SWAP2 SWAP1 SWAP2 SWAP1 SWAP2 POP PUSH1 0x0 DUP3 ADD MLOAD DUP2 PUSH1 0x0 ADD SWAP1 DUP1 MLOAD SWAP1 PUSH1 0x20 ADD SWAP1 PUSH2 0x2A6 SWAP3 SWAP2 SWAP1 PUSH2 0x365 JUMP JUMPDEST POP PUSH1 0x20 DUP3 ADD MLOAD DUP2 PUSH1 0x1 ADD SWAP1 DUP1 MLOAD SWAP1 PUSH1 0x20 ADD SWAP1 PUSH2 0x2C3 SWAP3 SWAP2 SWAP1 PUSH2 0x365 JUMP JUMPDEST POP PUSH1 0x40 DUP3 ADD MLOAD DUP2 PUSH1 0x2 ADD PUSH1 0x0 DUP3 ADD MLOAD DUP2 PUSH1 0x0 ADD SSTORE PUSH1 0x20 DUP3 ADD MLOAD DUP2 PUSH1 0x1 ADD SSTORE PUSH1 0x40 DUP3 ADD MLOAD DUP2 PUSH1 0x2 ADD SSTORE POP POP PUSH1 0x60 DUP3 ADD MLOAD DUP2 PUSH1 0x5 ADD SSTORE PUSH1 0x80 DUP3 ADD MLOAD DUP2 PUSH1 0x6 ADD SSTORE POP POP PUSH32 0x8CB0712D9D53B513CAEA401396999079E4669BA15DB949CC7271559DCBA43201 PUSH1 0x1 SLOAD DUP7 DUP7 DUP7 DUP7 DUP7 PUSH1 0x40 MLOAD PUSH2 0x33E SWAP7 SWAP6 SWAP5 SWAP4 SWAP3 SWAP2 SWAP1 PUSH2 0x6CA JUMP JUMPDEST PUSH1 0x40 MLOAD DUP1 SWAP2 SUB SWAP1 LOG1 PUSH1 0x1 PUSH1 0x0 DUP2 SLOAD DUP1 SWAP3 SWAP2 SWAP1 PUSH2 0x359 SWAP1 PUSH2 0x85B JUMP JUMPDEST SWAP2 SWAP1 POP SSTORE POP POP POP POP POP POP JUMP JUMPDEST DUP3 DUP1 SLOAD PUSH2 0x371 SWAP1 PUSH2 0x7F8 JUMP JUMPDEST SWAP1 PUSH1 0x0 MSTORE PUSH1 0x20 PUSH1 0x0 KECCAK256 SWAP1 PUSH1 0x1F ADD PUSH1 0x20 SWAP1 DIV DUP2 ADD SWAP3 DUP3 PUSH2 0x393 JUMPI PUSH1 0x0 DUP6 SSTORE PUSH2 0x3DA JUMP JUMPDEST DUP3 PUSH1 0x1F LT PUSH2 0x3AC JUMPI DUP1 MLOAD PUSH1 0xFF NOT AND DUP4 DUP1 ADD OR DUP6 SSTORE PUSH2 0x3DA JUMP JUMPDEST DUP3 DUP1 ADD PUSH1 0x1 ADD DUP6 SSTORE DUP3 ISZERO PUSH2 0x3DA JUMPI SWAP2 DUP3 ADD JUMPDEST DUP3 DUP2 GT ISZERO PUSH2 0x3D9 JUMPI DUP3 MLOAD DUP3 SSTORE SWAP2 PUSH1 0x20 ADD SWAP2 SWAP1 PUSH1 0x1 ADD SWAP1 PUSH2 0x3BE JUMP JUMPDEST JUMPDEST POP SWAP1 POP PUSH2 0x3E7 SWAP2 SWAP1 PUSH2 0x3EB JUMP JUMPDEST POP SWAP1 JUMP JUMPDEST JUMPDEST DUP1 DUP3 GT ISZERO PUSH2 0x404 JUMPI PUSH1 0x0 DUP2 PUSH1 0x0 SWAP1 SSTORE POP PUSH1 0x1 ADD PUSH2 0x3EC JUMP JUMPDEST POP SWAP1 JUMP JUMPDEST PUSH1 0x0 PUSH2 0x41B PUSH2 0x416 DUP5 PUSH2 0x75F JUMP JUMPDEST PUSH2 0x73A JUMP JUMPDEST SWAP1 POP DUP3 DUP2 MSTORE PUSH1 0x20 DUP2 ADD DUP5 DUP5 DUP5 ADD GT ISZERO PUSH2 0x433 JUMPI PUSH1 0x0 DUP1 REVERT JUMPDEST PUSH2 0x43E DUP5 DUP3 DUP6 PUSH2 0x7B6 JUMP JUMPDEST POP SWAP4 SWAP3 POP POP POP JUMP JUMPDEST PUSH1 0x0 DUP3 PUSH1 0x1F DUP4 ADD SLT PUSH2 0x457 JUMPI PUSH1 0x0 DUP1 REVERT JUMPDEST DUP2 CALLDATALOAD PUSH2 0x467 DUP5 DUP3 PUSH1 0x20 DUP7 ADD PUSH2 0x408 JUMP JUMPDEST SWAP2 POP POP SWAP3 SWAP2 POP POP JUMP JUMPDEST PUSH1 0x0 PUSH1 0x60 DUP3 DUP5 SUB SLT ISZERO PUSH2 0x482 JUMPI PUSH1 0x0 DUP1 REVERT JUMPDEST PUSH2 0x48C PUSH1 0x60 PUSH2 0x73A JUMP JUMPDEST SWAP1 POP PUSH1 0x0 PUSH2 0x49C DUP5 DUP3 DUP6 ADD PUSH2 0x4D0 JUMP JUMPDEST PUSH1 0x0 DUP4 ADD MSTORE POP PUSH1 0x20 PUSH2 0x4B0 DUP5 DUP3 DUP6 ADD PUSH2 0x4D0 JUMP JUMPDEST PUSH1 0x20 DUP4 ADD MSTORE POP PUSH1 0x40 PUSH2 0x4C4 DUP5 DUP3 DUP6 ADD PUSH2 0x4D0 JUMP JUMPDEST PUSH1 0x40 DUP4 ADD MSTORE POP SWAP3 SWAP2 POP POP JUMP JUMPDEST PUSH1 0x0 DUP2 CALLDATALOAD SWAP1 POP PUSH2 0x4DF DUP2 PUSH2 0x942 JUMP JUMPDEST SWAP3 SWAP2 POP POP JUMP JUMPDEST PUSH1 0x0 DUP1 PUSH1 0x0 DUP1 PUSH1 0x0 PUSH1 0xE0 DUP7 DUP9 SUB SLT ISZERO PUSH2 0x4FD JUMPI PUSH1 0x0 DUP1 REVERT JUMPDEST PUSH1 0x0 DUP7 ADD CALLDATALOAD PUSH8 0xFFFFFFFFFFFFFFFF DUP2 GT ISZERO PUSH2 0x517 JUMPI PUSH1 0x0 DUP1 REVERT JUMPDEST PUSH2 0x523 DUP9 DUP3 DUP10 ADD PUSH2 0x446 JUMP JUMPDEST SWAP6 POP POP PUSH1 0x20 DUP7 ADD CALLDATALOAD PUSH8 0xFFFFFFFFFFFFFFFF DUP2 GT ISZERO PUSH2 0x540 JUMPI PUSH1 0x0 DUP1 REVERT JUMPDEST PUSH2 0x54C DUP9 DUP3 DUP10 ADD PUSH2 0x446 JUMP JUMPDEST SWAP5 POP POP PUSH1 0x40 PUSH2 0x55D DUP9 DUP3 DUP10 ADD PUSH2 0x470 JUMP JUMPDEST SWAP4 POP POP PUSH1 0xA0 PUSH2 0x56E DUP9 DUP3 DUP10 ADD PUSH2 0x4D0 JUMP JUMPDEST SWAP3 POP POP PUSH1 0xC0 PUSH2 0x57F DUP9 DUP3 DUP10 ADD PUSH2 0x4D0 JUMP JUMPDEST SWAP2 POP POP SWAP3 SWAP6 POP SWAP3 SWAP6 SWAP1 SWAP4 POP JUMP JUMPDEST PUSH1 0x0 PUSH1 0x20 DUP3 DUP5 SUB SLT ISZERO PUSH2 0x59E JUMPI PUSH1 0x0 DUP1 REVERT JUMPDEST PUSH1 0x0 PUSH2 0x5AC DUP5 DUP3 DUP6 ADD PUSH2 0x4D0 JUMP JUMPDEST SWAP2 POP POP SWAP3 SWAP2 POP POP JUMP JUMPDEST PUSH1 0x0 PUSH2 0x5C0 DUP3 PUSH2 0x790 JUMP JUMPDEST PUSH2 0x5CA DUP2 DUP6 PUSH2 0x79B JUMP JUMPDEST SWAP4 POP PUSH2 0x5DA DUP2 DUP6 PUSH1 0x20 DUP7 ADD PUSH2 0x7C5 JUMP JUMPDEST PUSH2 0x5E3 DUP2 PUSH2 0x931 JUMP JUMPDEST DUP5 ADD SWAP2 POP POP SWAP3 SWAP2 POP POP JUMP JUMPDEST PUSH1 0x60 DUP3 ADD PUSH1 0x0 DUP3 ADD MLOAD PUSH2 0x604 PUSH1 0x0 DUP6 ADD DUP3 PUSH2 0x630 JUMP JUMPDEST POP PUSH1 0x20 DUP3 ADD MLOAD PUSH2 0x617 PUSH1 0x20 DUP6 ADD DUP3 PUSH2 0x630 JUMP JUMPDEST POP PUSH1 0x40 DUP3 ADD MLOAD PUSH2 0x62A PUSH1 0x40 DUP6 ADD DUP3 PUSH2 0x630 JUMP JUMPDEST POP POP POP POP JUMP JUMPDEST PUSH2 0x639 DUP2 PUSH2 0x7AC JUMP JUMPDEST DUP3 MSTORE POP POP JUMP JUMPDEST PUSH2 0x648 DUP2 PUSH2 0x7AC JUMP JUMPDEST DUP3 MSTORE POP POP JUMP JUMPDEST PUSH1 0x0 PUSH1 0xE0 DUP3 ADD SWAP1 POP DUP2 DUP2 SUB PUSH1 0x0 DUP4 ADD MSTORE PUSH2 0x668 DUP2 DUP9 PUSH2 0x5B5 JUMP JUMPDEST SWAP1 POP DUP2 DUP2 SUB PUSH1 0x20 DUP4 ADD MSTORE PUSH2 0x67C DUP2 DUP8 PUSH2 0x5B5 JUMP JUMPDEST SWAP1 POP PUSH2 0x68B PUSH1 0x40 DUP4 ADD DUP7 PUSH2 0x5EE JUMP JUMPDEST PUSH2 0x698 PUSH1 0xA0 DUP4 ADD DUP6 PUSH2 0x63F JUMP JUMPDEST PUSH2 0x6A5 PUSH1 0xC0 DUP4 ADD DUP5 PUSH2 0x63F JUMP JUMPDEST SWAP7 SWAP6 POP POP POP POP POP POP JUMP JUMPDEST PUSH1 0x0 PUSH1 0x20 DUP3 ADD SWAP1 POP PUSH2 0x6C4 PUSH1 0x0 DUP4 ADD DUP5 PUSH2 0x63F JUMP JUMPDEST SWAP3 SWAP2 POP POP JUMP JUMPDEST PUSH1 0x0 PUSH2 0x100 DUP3 ADD SWAP1 POP PUSH2 0x6E0 PUSH1 0x0 DUP4 ADD DUP10 PUSH2 0x63F JUMP JUMPDEST DUP2 DUP2 SUB PUSH1 0x20 DUP4 ADD MSTORE PUSH2 0x6F2 DUP2 DUP9 PUSH2 0x5B5 JUMP JUMPDEST SWAP1 POP DUP2 DUP2 SUB PUSH1 0x40 DUP4 ADD MSTORE PUSH2 0x706 DUP2 DUP8 PUSH2 0x5B5 JUMP JUMPDEST SWAP1 POP PUSH2 0x715 PUSH1 0x60 DUP4 ADD DUP7 PUSH2 0x5EE JUMP JUMPDEST PUSH2 0x722 PUSH1 0xC0 DUP4 ADD DUP6 PUSH2 0x63F JUMP JUMPDEST PUSH2 0x72F PUSH1 0xE0 DUP4 ADD DUP5 PUSH2 0x63F JUMP JUMPDEST SWAP8 SWAP7 POP POP POP POP POP POP POP JUMP JUMPDEST PUSH1 0x0 PUSH2 0x744 PUSH2 0x755 JUMP JUMPDEST SWAP1 POP PUSH2 0x750 DUP3 DUP3 PUSH2 0x82A JUMP JUMPDEST SWAP2 SWAP1 POP JUMP JUMPDEST PUSH1 0x0 PUSH1 0x40 MLOAD SWAP1 POP SWAP1 JUMP JUMPDEST PUSH1 0x0 PUSH8 0xFFFFFFFFFFFFFFFF DUP3 GT ISZERO PUSH2 0x77A JUMPI PUSH2 0x779 PUSH2 0x902 JUMP JUMPDEST JUMPDEST PUSH2 0x783 DUP3 PUSH2 0x931 JUMP JUMPDEST SWAP1 POP PUSH1 0x20 DUP2 ADD SWAP1 POP SWAP2 SWAP1 POP JUMP JUMPDEST PUSH1 0x0 DUP2 MLOAD SWAP1 POP SWAP2 SWAP1 POP JUMP JUMPDEST PUSH1 0x0 DUP3 DUP3 MSTORE PUSH1 0x20 DUP3 ADD SWAP1 POP SWAP3 SWAP2 POP POP JUMP JUMPDEST PUSH1 0x0 DUP2 SWAP1 POP SWAP2 SWAP1 POP JUMP JUMPDEST DUP3 DUP2 DUP4 CALLDATACOPY PUSH1 0x0 DUP4 DUP4 ADD MSTORE POP POP POP JUMP JUMPDEST PUSH1 0x0 JUMPDEST DUP4 DUP2 LT ISZERO PUSH2 0x7E3 JUMPI DUP1 DUP3 ADD MLOAD DUP2 DUP5 ADD MSTORE PUSH1 0x20 DUP2 ADD SWAP1 POP PUSH2 0x7C8 JUMP JUMPDEST DUP4 DUP2 GT ISZERO PUSH2 0x7F2 JUMPI PUSH1 0x0 DUP5 DUP5 ADD MSTORE JUMPDEST POP POP POP POP JUMP JUMPDEST PUSH1 0x0 PUSH1 0x2 DUP3 DIV SWAP1 POP PUSH1 0x1 DUP3 AND DUP1 PUSH2 0x810 JUMPI PUSH1 0x7F DUP3 AND SWAP2 POP JUMPDEST PUSH1 0x20 DUP3 LT DUP2 EQ ISZERO PUSH2 0x824 JUMPI PUSH2 0x823 PUSH2 0x8D3 JUMP JUMPDEST JUMPDEST POP SWAP2 SWAP1 POP JUMP JUMPDEST PUSH2 0x833 DUP3 PUSH2 0x931 JUMP JUMPDEST DUP2 ADD DUP2 DUP2 LT PUSH8 0xFFFFFFFFFFFFFFFF DUP3 GT OR ISZERO PUSH2 0x852 JUMPI PUSH2 0x851 PUSH2 0x902 JUMP JUMPDEST JUMPDEST DUP1 PUSH1 0x40 MSTORE POP POP POP JUMP JUMPDEST PUSH1 0x0 PUSH2 0x866 DUP3 PUSH2 0x7AC JUMP JUMPDEST SWAP2 POP PUSH32 0xFFFFFFFFFFFFFFFFFFFFFFFFFFFFFFFFFFFFFFFFFFFFFFFFFFFFFFFFFFFFFFFF DUP3 EQ ISZERO PUSH2 0x899 JUMPI PUSH2 0x898 PUSH2 0x8A4 JUMP JUMPDEST JUMPDEST PUSH1 0x1 DUP3 ADD SWAP1 POP SWAP2 SWAP1 POP JUMP JUMPDEST PUSH32 0x4E487B7100000000000000000000000000000000000000000000000000000000 PUSH1 0x0 MSTORE PUSH1 0x11 PUSH1 0x4 MSTORE PUSH1 0x24 PUSH1 0x0 REVERT JUMPDEST PUSH32 0x4E487B7100000000000000000000000000000000000000000000000000000000 PUSH1 0x0 MSTORE PUSH1 0x22 PUSH1 0x4 MSTORE PUSH1 0x24 PUSH1 0x0 REVERT JUMPDEST PUSH32 0x4E487B7100000000000000000000000000000000000000000000000000000000 PUSH1 0x0 MSTORE PUSH1 0x41 PUSH1 0x4 MSTORE PUSH1 0x24 PUSH1 0x0 REVERT JUMPDEST PUSH1 0x0 PUSH1 0x1F NOT PUSH1 0x1F DUP4 ADD AND SWAP1 POP SWAP2 SWAP1 POP JUMP JUMPDEST PUSH2 0x94B DUP2 PUSH2 0x7AC JUMP JUMPDEST DUP2 EQ PUSH2 0x956 JUMPI PUSH1 0x0 DUP1 REVERT JUMPDEST POP JUMP INVALID LOG2 PUSH5 0x6970667358 0x22 SLT KECCAK256 0x4F GT BLOCKHASH DUP10 0x2F 0xB6 PUSH24 0x3B7838B3E9034D99E65F64297729C5639383172E9A274EF7 0xD3 PUSH5 0x736F6C6343 STOP ADDMOD DIV STOP CALLER "},"methodIdentifiers":{"buildings(uint256)":"4c96a062","createBuilding(string,string,(uint256,uint256,uint256),uint256,uint256)":"a6fdc5c7","nbBuildings()":"8d985651"}}}}}