{
  "_format": "hh-sol-artifact-1",
  "contractName": "CityToken",
  "sourceName": "contracts/CityToken.sol",
  "abi": [
    {
      "anonymous": false,
      "inputs": [
        {
          "indexed": false,
          "internalType": "uint256",
          "name": "building",
          "type": "uint256"
        },
        {
          "indexed": false,
          "internalType": "string",
          "name": "ownerName",
          "type": "string"
        },
        {
          "indexed": false,
          "internalType": "string",
          "name": "message",
          "type": "string"
        },
        {
          "components": [
            {
              "internalType": "uint256",
              "name": "x",
              "type": "uint256"
            },
            {
              "internalType": "uint256",
              "name": "y",
              "type": "uint256"
            },
            {
              "internalType": "uint256",
              "name": "z",
              "type": "uint256"
            }
          ],
          "indexed": false,
          "internalType": "struct CityToken.Position",
          "name": "position",
          "type": "tuple"
        },
        {
          "indexed": false,
          "internalType": "uint256",
          "name": "height",
          "type": "uint256"
        },
        {
          "indexed": false,
          "internalType": "uint256",
          "name": "color",
          "type": "uint256"
        }
      ],
      "name": "NewBuilding",
      "type": "event"
    },
    {
      "inputs": [
        {
          "internalType": "uint256",
          "name": "",
          "type": "uint256"
        }
      ],
      "name": "buildings",
      "outputs": [
        {
          "internalType": "string",
          "name": "ownerName",
          "type": "string"
        },
        {
          "internalType": "string",
          "name": "message",
          "type": "string"
        },
        {
          "components": [
            {
              "internalType": "uint256",
              "name": "x",
              "type": "uint256"
            },
            {
              "internalType": "uint256",
              "name": "y",
              "type": "uint256"
            },
            {
              "internalType": "uint256",
              "name": "z",
              "type": "uint256"
            }
          ],
          "internalType": "struct CityToken.Position",
          "name": "position",
          "type": "tuple"
        },
        {
          "internalType": "uint256",
          "name": "height",
          "type": "uint256"
        },
        {
          "internalType": "uint256",
          "name": "color",
          "type": "uint256"
        }
      ],
      "stateMutability": "view",
      "type": "function"
    },
    {
      "inputs": [
        {
          "internalType": "string",
          "name": "_ownerName",
          "type": "string"
        },
        {
          "internalType": "string",
          "name": "_message",
          "type": "string"
        },
        {
          "components": [
            {
              "internalType": "uint256",
              "name": "x",
              "type": "uint256"
            },
            {
              "internalType": "uint256",
              "name": "y",
              "type": "uint256"
            },
            {
              "internalType": "uint256",
              "name": "z",
              "type": "uint256"
            }
          ],
          "internalType": "struct CityToken.Position",
          "name": "_position",
          "type": "tuple"
        },
        {
          "internalType": "uint256",
          "name": "_height",
          "type": "uint256"
        },
        {
          "internalType": "uint256",
          "name": "_color",
          "type": "uint256"
        }
      ],
      "name": "createBuilding",
      "outputs": [],
      "stateMutability": "nonpayable",
      "type": "function"
    },
    {
      "inputs": [],
      "name": "nbBuildings",
      "outputs": [
        {
          "internalType": "uint256",
          "name": "",
          "type": "uint256"
        }
      ],
      "stateMutability": "view",
      "type": "function"
    }
  ],
  "bytecode": "0x608060405234801561001057600080fd5b5061098f806100206000396000f3fe608060405234801561001057600080fd5b50600436106100415760003560e01c80634c96a062146100465780638d9856511461007a578063a6fdc5c714610098575b600080fd5b610060600480360381019061005b919061058c565b6100b4565b60405161007195949392919061064e565b60405180910390f35b610082610232565b60405161008f91906106af565b60405180910390f35b6100b260048036038101906100ad91906104e5565b610238565b005b600081815481106100c457600080fd5b90600052602060002090600702016000915090508060000180546100e7906107f8565b80601f0160208091040260200160405190810160405280929190818152602001828054610113906107f8565b80156101605780601f1061013557610100808354040283529160200191610160565b820191906000526020600020905b81548152906001019060200180831161014357829003601f168201915b505050505090806001018054610175906107f8565b80601f01602080910402602001604051908101604052809291908181526020018280546101a1906107f8565b80156101ee5780601f106101c3576101008083540402835291602001916101ee565b820191906000526020600020905b8154815290600101906020018083116101d157829003601f168201915b505050505090806002016040518060600160405290816000820154815260200160018201548152602001600282015481525050908060050154908060060154905085565b60015481565b60006040518060a0016040528087815260200186815260200185815260200184815260200183815250908060018154018082558091505060019003906000526020600020906007020160009091909190915060008201518160000190805190602001906102a6929190610365565b5060208201518160010190805190602001906102c3929190610365565b506040820151816002016000820151816000015560208201518160010155604082015181600201555050606082015181600501556080820151816006015550507f8cb0712d9d53b513caea401396999079e4669ba15db949cc7271559dcba43201600154868686868660405161033e969594939291906106ca565b60405180910390a1600160008154809291906103599061085b565b91905055505050505050565b828054610371906107f8565b90600052602060002090601f01602090048101928261039357600085556103da565b82601f106103ac57805160ff19168380011785556103da565b828001600101855582156103da579182015b828111156103d95782518255916020019190600101906103be565b5b5090506103e791906103eb565b5090565b5b808211156104045760008160009055506001016103ec565b5090565b600061041b6104168461075f565b61073a565b90508281526020810184848401111561043357600080fd5b61043e8482856107b6565b509392505050565b600082601f83011261045757600080fd5b8135610467848260208601610408565b91505092915050565b60006060828403121561048257600080fd5b61048c606061073a565b9050600061049c848285016104d0565b60008301525060206104b0848285016104d0565b60208301525060406104c4848285016104d0565b60408301525092915050565b6000813590506104df81610942565b92915050565b600080600080600060e086880312156104fd57600080fd5b600086013567ffffffffffffffff81111561051757600080fd5b61052388828901610446565b955050602086013567ffffffffffffffff81111561054057600080fd5b61054c88828901610446565b945050604061055d88828901610470565b93505060a061056e888289016104d0565b92505060c061057f888289016104d0565b9150509295509295909350565b60006020828403121561059e57600080fd5b60006105ac848285016104d0565b91505092915050565b60006105c082610790565b6105ca818561079b565b93506105da8185602086016107c5565b6105e381610931565b840191505092915050565b6060820160008201516106046000850182610630565b5060208201516106176020850182610630565b50604082015161062a6040850182610630565b50505050565b610639816107ac565b82525050565b610648816107ac565b82525050565b600060e082019050818103600083015261066881886105b5565b9050818103602083015261067c81876105b5565b905061068b60408301866105ee565b61069860a083018561063f565b6106a560c083018461063f565b9695505050505050565b60006020820190506106c4600083018461063f565b92915050565b6000610100820190506106e0600083018961063f565b81810360208301526106f281886105b5565b9050818103604083015261070681876105b5565b905061071560608301866105ee565b61072260c083018561063f565b61072f60e083018461063f565b979650505050505050565b6000610744610755565b9050610750828261082a565b919050565b6000604051905090565b600067ffffffffffffffff82111561077a57610779610902565b5b61078382610931565b9050602081019050919050565b600081519050919050565b600082825260208201905092915050565b6000819050919050565b82818337600083830152505050565b60005b838110156107e35780820151818401526020810190506107c8565b838111156107f2576000848401525b50505050565b6000600282049050600182168061081057607f821691505b60208210811415610824576108236108d3565b5b50919050565b61083382610931565b810181811067ffffffffffffffff8211171561085257610851610902565b5b80604052505050565b6000610866826107ac565b91507fffffffffffffffffffffffffffffffffffffffffffffffffffffffffffffffff821415610899576108986108a4565b5b600182019050919050565b7f4e487b7100000000000000000000000000000000000000000000000000000000600052601160045260246000fd5b7f4e487b7100000000000000000000000000000000000000000000000000000000600052602260045260246000fd5b7f4e487b7100000000000000000000000000000000000000000000000000000000600052604160045260246000fd5b6000601f19601f8301169050919050565b61094b816107ac565b811461095657600080fd5b5056fea26469706673582212204f1140892fb6773b7838b3e9034d99e65f64297729c5639383172e9a274ef7d364736f6c63430008040033",
  "linkReferences": {},
  "deployedLinkReferences": {}
}